:020000040800F2
:1000000000000220150400086504000865040008CB
:10001000650400086504000865040008000000008D
:10002000000000000000000000000000650400085F
:1000300000000000000000006504000865040008DE
:1000400065040008650400086504000865040008EC
:1000500065040008650400086504000865040008DC
:1000600065040008650400086504000865040008CC
:1000700065040008650400086504000865040008BC
:1000800065040008650400086504000865040008AC
:10009000650400086504000865040008650400089C
:1000A000650400086504000865040008650400088C
:1000B000650400086504000865040008650400087C
:1000C000650400086504000865040008650400086C
:1000D000650400086504000865040008650400085C
:1000E000FD030008650400086504000865040008B5
:1000F000650400086504000865040008650400083C
:10010000650400086504000865040008650400082B
:10011000650400086504000865040008650400081B
:10012000650400086504000865040008650400080B
:1001300065040008000000000000000065040008DD
:1001400065040008650400086504000865040008EB
:1001500065040008650400086504000865040008DB
:1001600065040008650400086504000865040008CB
:10017000650400086504000865040008000000002C
:10018000000000000000000000000000000000006F
:10019000650400080000000000000000650400087D
:1001A00000000000000000000000000065040008DE
:1001B000650400086504000865040008650400087B
:0401C00065040008CA
:1001C4000348044B834202D0034B03B118477047E2
:1001D40030040020300400200000000005480649D7
:1001E4000B1AD90F01EBA301491002D0034B03B141
:1001F400184770473004002030040020000000003D
:1002040010B5064C237843B9FFF7DAFF044B13B15A
:100214000448AFF300800123237010BD3004002094
:1002240000000000B808000808B5044B1BB10449DD
:100234000448AFF30080BDE80840CFE700000000A9
:1002440034040020B8080008002301461A46184662
:1002540000F03AB838B5084B084D5B1B9C1007D02A
:10026400043B1D44013C55F804399847002CF9D14E
:10027400BDE8384000F024BBE0080008DC080008B2
:1002840070B50D4E0D4D761BB61006D0002455F8F2
:10029400043B01349847A642F9D1094E094D761B17
:1002A40000F008FBB61006D0002455F8043B0134D6
:1002B4009847A642F9D170BDD4080008D4080008B4
:1002C400DC080008D408000870B4184C2568D5F878
:1002D40048411CB365681F2D25DC38B9AB1C0135BA
:1002E400656044F82310002070BC704704EB850C53
:1002F4000228CCF88820D4F888614FF0010202FA71
:1003040005F246EA0206C4F88861CCF80831E5D162
:10031400D4F88C311343C4F88C31DFE705F5A674A7
:10032400C5F84841D6E74FF0FF30DDE7D0080008B4
:10033400024B13B10248FFF787BF7047000000006B
:100344005902000810B584B000230193029303936B
:100354000E4B019305238DF8083001248DF80940D4
:1003640002238DF80A3001A800F022F9084B01930A
:100374000D238DF8083004238DF809308DF80B40D7
:100384000DEB030000F014F904B010BD00000240AE
:100394000008024008B50121282000F00BFA0F21C3
:1003A400282000F069FA08BD08B5FFF7CBFFFFF776
:1003B400F1FF04E0012205210D4800F0E5F90D4BA1
:1003C4001B78DBB2012B07D0022B0BD0002BF1D012
:1003D400084B00221A70F2E700220521044800F0BD
:1003E400D3F9ECE70521024800F0DEF9E7E700BFA6
:1003F400000002404C04002008B50D2000F04CFA27
:10040400024A13780133DBB2137008BD4C04002098
:100414000D488546AFF300800C480D490D4A002372
:1004240002E0D458C4500433C4188C42F9D30A4AA5
:100434000A4C002301E013600432A242FBD3FFF70D
:100444001FFFFFF7B1FFFEE70000022000000020BD
:1004540030040020E008000830040020500400208C
:10046400FEE70000012918D0484B98425DD0484B64
:10047400984260D0474B984263D0474B984266D02D
:10048400464B984269D0464B98426CD0454B9842B3
:100494006FD0454B984272D070473C4B98421AD06B
:1004A4003B4B98421DD03B4B984220D03A4B98424C
:1004B40023D03A4B984226D0394B984229D0394B15
:1004C40098422CD0384B9842E6D1384A136B43F00B
:1004D400800313637047354A136B43F001031363BE
:1004E4007047324A136B43F00203136370472F4A79
:1004F400136B43F00403136370472C4A136B43F0EC
:10050400080313637047294A136B43F01003136302
:100514007047264A136B43F0200313637047234A42
:10052400136B43F0400313637047204A136B23F0AB
:100534000103136370471D4A136B23F00203136313
:1005440070471A4A136B23F0040313637047174A66
:10055400136B23F0080313637047144A136B23F0DF
:10056400100313637047114A136B23F020031363C2
:1005740070470E4A136B23F04003136370470B4A12
:10058400136B23F08003136386E700BF000002406F
:100594000004024000080240000C02400010024027
:1005A4000014024000180240001C024000380240BF
:1005B40038B5044601210068FFF754FF6379032B23
:1005C4000ED825796A009340206802680321A94067
:1005D40022EA0102026021680A6813430B606FE09B
:1005E400042B11D0052B44D0062B1BD1624B9968E8
:1005F4002079012202FA00F001439960D968207938
:1006040082400A43DA600DE05B4BD968207901220D
:1006140002FA00F00143D96099682079824021EA06
:1006240002029A6022794FEA920C02F003022368D4
:1006340052498B422ED001F580618B4276D001F570
:1006440080618B4274D001F580618B4272D001F5D8
:1006540080618B4270D001F580618B426ED001F5D0
:1006640080618B426CD001F580618B4210D00020F8
:1006740011E0414B99682079012202FA00F001430C
:100684009960D9682079824021EA0202DA60C9E7D8
:10069400072000E000203A4D696C41F48041696410
:1006A400920000FA02F20CF10203364941F82320C9
:1006B40001F580610B6820790122824013430B60AD
:1006C400A1792279530099402568A868032303FA85
:1006D40002F220EA0202AA60206882680A43826069
:1006E400E27994F804C04FEA4C018A402068C1685A
:1006F40003FA0CF321EA0303C3602168CB681343B4
:10070400CB60237A94F804C003FA0CF2206843689F
:10071400012101FA0CF123EA0103436021684B68CB
:1007240013434B606379022B0CD038BD0120B2E730
:100734000220B0E70320AEE70420ACE70520AAE7D7
:100744000620A8E72379DA0803F0070325680832AE
:1007540055F822109B00FF20984021EA000145F83B
:100764002210256855F82210607A00FA03F30B432F
:1007740045F82230D9E700BF003C014000000240A8
:100784000038024000380140012A07D043690122A1
:1007940002FA01F123EA010141617047436902FA57
:1007A40001F1194341617047436901228A40534072
:1007B4004361704701290CD01F283AD84FF0E0213B
:1007C400D1F88031012202FA00F01843C1F8800107
:1007D40070471F280AD84FF0E021D1F800310122D8
:1007E40002FA00F01843C1F800017047A0F1200399
:1007F400DBB21F2B0BD84FF0E022D2F8043100F00B
:100804001F01012088401843C2F804017047A0F179
:100814004003DBB21F2B2ED84FF0E021D1F8083172
:1008240000F03F00012202FA00F00343C1F808314E
:100834007047A0F12003DBB21F2B0BD84FF0E0224E
:10084400D2F8843100F01F01012088401843C2F817
:1008540084017047A0F14003DBB21F2B0BD84FF08B
:10086400E021D1F8883100F03F00012202FA00F0C3
:100874001843C1F888017047830800F00300C000E2
:1008840004301B0103F1604303F564431A6801FA61
:1008940000F002431A607047054B5A69012303FABA
:1008A40000F0024203D0024B5A691043586170476A
:1008B400003C0140F8B500BFF8BC08BC9E46704738
:0C08C400F8B500BFF8BC08BC9E467047A9
:0408D00008000020FC
:0808D400350300082D020008A5
:0408DC000502000809
:1008E000080000200000000000000000F4020020CA
:1008F0005C030020C4030020000000000000000092
:1009000000000000000000000000000000000000E7
:1009100000000000000000000000000000000000D7
:1009200000000000000000000000000000000000C7
:1009300000000000000000000000000000000000B7
:1009400000000000000000000000000000000000A7
:100950000000000000000000000000000000000097
:100960000000000000000000000000000000000087
:100970000000000000000000000000000000000077
:100980000000000000000000000000000000000067
:1009900001000000000000000E33CDAB34126DE604
:1009A000ECDE05000B00000000000000000000006D
:1009B0000000000000000000000000000000000037
:1009C0000000000000000000000000000000000027
:1009D0000000000000000000000000000000000017
:1009E0000000000000000000000000000000000007
:0400000508000415D6
:00000001FF
